:100000000C94F8050C9424060C9424060C942406F5
:100010000C9424060C9424060C9424060C942406B8
:100020000C9424060C946F3D0C94973D0C94BF3DAA
:100030000C9424060C9424060C9424060C94240698
:100040000C9424060C94CE3C0C9424060C942406A8
:100050000C9424060C9424060C9424060C946148F9
:100060000C9424060C94AB400C94D7410C942406B9
:100070000C9424060C9424060C9424060C94240658
:100080000C94A03C0C9424060C9424060C94072990
:100090000C94E4400C9424420C9424060C94123FDB
:1000A0000C9424060C9424060C94723C0C942406A4
:1000B0000C9424060C9424060C9424060C94443CC2
:1000C0000C9424060C9424060C9424060C941D41D4
:1000D0000C9471420C9424060C9456410C94BE422C
:1000E0000C94240607634236B79BD8A71A39685682
:1000F00018AEBAAB558C1D3CB7CC5763BD6DEDFD4A
:10010000753EF6177231BF000000803F0800000006
:10011000BE922449123EABAAAA2ABECDCCCC4C3EFC
:1001200000000080BEABAAAAAA3E00000000BF00EB
:100130000000803F0000000000084178D3BB4387E7
:10014000D1133D190E3CC3BD4282AD2B3E68EC82FB
:1001500076BED98FE1A93E4C80EFFFBE01C4FF7F80
:100160003F000000000025750025692E25692E2519
:10017000692E25690041542B5253495F534E443D2B
:10018000002C302C302C002C0041542B5253495F52
:10019000534E443D002C002C30002C002C30002C01
:1001A000002C0041542B5253495F534E443D002CC8
:1001B000002C30002C002C30002C002C0041542B43
:1001C0005253495F534E443D002C002C30002C000C
:1001D0002C30002C002C0041542B5253495F4354C7
:1001E00043503D0041542B5253495F434C533D0013
:1001F00041542B5253495F4C5544503D0041542BC0
:100200005253495F4C5443503D0041542B52534983
:100210005F5544503D0041542B5253495F54435065
:100220003D0041542B5253495F204D554C54494396
:100230004153543D002C002C0041542B5253495F34
:100240004950434F4E463D302C002C002C32353562
:100250002E3235352E3235352E30002C00313932E4
:100260002E3136382E302E310041542B5253495FF7
:10027000444E535345525645523D0041542B525320
:10028000495F4950434F4E463D312C302C300041A0
:10029000542B5253495F4950434F4E463D322C3008
:1002A0002C300041542B5253495F4449534153531E
:1002B0004F43002C302C320041542B5253495F4A9B
:1002C0004F494E3D002C302C310041542B525349A4
:1002D0005F4A4F494E3D002C302C300041542B5288
:1002E00053495F4A4F494E3D0041542B5253495F99
:1002F00050534B3D0041542B5253495F4155544894
:100300004D4F44453D310041542B5253495F4155B7
:1003100054484D4F44453D300041542B5253495FA2
:100320004E4554574F524B3D494253532C312C00AC
:1003300041542B5253495F4E4554574F524B3D4900
:100340004253535F5345432C312C0041542B52539D
:10035000495F4E4554574F524B3D494253532C3001
:100360002C300041542B5253495F4E4554574F5245
:100370004B3D494253535F5345432C302C30004191
:10038000542B5253495F4E4554574F524B3D494EA3
:100390004652415354525543545552450041542BF3
:1003A0005253495F4E4558545343414E0041542BDC
:1003B0005253495F5343414E3D0041542B525349E0
:1003C0005F5343414E3D002C0041542B5253495F33
:1003D0004E554D5343414E3D310041542B525349EC
:1003E0005F5343414E3D300041542B5253495F4EC1
:1003F000554D5343414E3D300041542B5253495FBC
:100400004E57545950453F0041542B5253495F4277
:10041000535349443F0041542B5253495F52535365
:10042000493F0041542B5253495F444E5347455472
:100430003D0041542B5253495F4D41433F004154CD
:100440002B5253495F465756455253494F4E3F0032
:1004500041542B5253495F494E49540041542B5249
:1004600053495F42414E443D300041542B52534961
:100470005F465756455253494F4E3F00000000001B
:10048000000000000000FF27100032FF271000329C
:10049000FF27100032FF271000320000000000008C
:1004A0000000000000000000000000000D0A45727E
:1004B000726F722073656E64696E67206D65737309
:1004C0006167653A203078000D0A446973636F6E86
:1004D0006E656374656420436F6E74726F6C204345
:1004E00068616E6E656C000D0A446973636F6E6EB1
:1004F000656374656420496E7465727275707420EA
:100500004368616E6E656C000D0A4D6F74696F6EA5
:1005100020436F6E74726F6C6C657220456E616201
:100520006C6564000D0A4E617669676174696F6E6F
:1005300020436F6E74726F6C6C657220456E6162E1
:100540006C6564000D0A4475616C73686F636B20A1
:100550003320436F6E74726F6C6C657220456E61F0
:10056000626C6564000D0A48494420496E746572E6
:1005700072757074205375636365737366756C6C04
:100580007920436F6E66696775726564000D0A486D
:10059000494420496E7465727275707420436F6EA1
:1005A00066696775726174696F6E205265717565F1
:1005B0007374000D0A48494420496E74657272755F
:1005C000707420496E636F6D696E6720436F6E6E45
:1005D000656374696F6E2052657175657374000D83
:1005E0000A48494420436F6E74726F6C20537563E0
:1005F0006365737366756C6C7920436F6E666967AB
:1006000075726564000D0A48494420436F6E747228
:100610006F6C20436F6E66696775726174696F6E87
:100620002052657175657374000D0A484944204372
:100630006F6E74726F6C20496E636F6D696E6720A8
:10064000436F6E6E656374696F6E20526571756578
:100650007374000D0A446973636F6E6E656374652D
:100660006420526571756573743A20446973636FD1
:100670006E6E656374656420496E74657272757020
:1006800074000D0A446973636F6E6E65637465640C
:1006900020526571756573743A20446973636F6E97
:1006A0006E656374656420436F6E74726F6C000DC9
:1006B0000A4C3243415020436F6D6D616E6420528D
:1006C000656A6563746564202D20526561736F6E81
:1006D0003A20000D0A446973636F6E6E656374653A
:1006E000642066726F6D204465766963653A200008
:1006F0000D0A5363616E2044697361626C65640026
:100700000D0A436F6E6E656374656420746F2044D8
:1007100065766963653A20000D0A52656D6F7465F0
:10072000204E616D653A20000D0A496E636F6D6958
:100730006E672052657175657374000D0A576169A3
:100740007420466F7220496E636F6D696E67204337
:100750006F6E6E656374696F6E2052657175657337
:1007600074000D0A4C6F63616C20426C7565746F88
:100770006F746820416464726573733A20000D0AD7
:100780004E6F20726573706F6E736520746F2048B2
:100790004349205265736574000D0A48434920524D
:1007A0006573657420636F6D706C657465000D0A08
:1007B00048434920436F6D6D616E64204661696CEA
:1007C00065643A20000D0A426C7565746F6F746839
:1007D000204164647265737320776173207365745C
:1007E00020746F3A20000D0A426C7565746F6F7447
:1007F0006820416464726573732077617320736548
:100800007420746F3A20000D0A50533320496E69EA
:1008100074204661696C65642C206572726F722069
:10082000636F64653A2000205049443A20000D0A65
:10083000556E6B6E6F776E204465766963652043F5
:100840006F6E6E6563746564202D205649443A20AE
:10085000000D0A736574436F6E663A000D0A736586
:100860007444657654626C456E3A000D0A6765748F
:1008700044657644657363723A000D0A4D6F74697E
:100880006F6E20436F6E74726F6C6C657220436F75
:100890006E6E6563746564000D0A4E61766967610A
:1008A00074696F6E20436F6E74726F6C6C6572202A
:1008B000436F6E6E6563746564000D0A4475616C08
:1008C00073686F636B203320436F6E74726F6C6C50
:1008D000657220436F6E6E6563746564000D0A4334
:1008E000535220496E697469616C697A6564000DC0
:1008F0000A426C7565746F6F746820446F6E676C24
:100900006520436F6E6E6563746564000D0A7365E0
:1009100074416464723A20000D0A6570696E666FF6
:10092000206973206E756C6C000D0A4164647265F9
:100930007373206E6F7420666F756E64000D0A41CC
:1009400064647265737320696E20757365002E0090
:100950000D0A54656D70657261747572653A200098
:10096000202D2000202D204D6F766500202D204366
:10097000726F737300202D205371756172650020B2
:100980002D20436972636C6500202D2054726961CB
:100990006E676C6500202D20537461727400202DE9
:1009A0002053656C65637400202D205053000D0AA0
:1009B000505333204D6F766520436F6E74726F6CA9
:1009C0006C6572000D0A543A2000202D205374618A
:1009D000727400202D2053656C656374202D2000F7
:1009E000202D20523300202D20523100202D204C6C
:1009F0003300202D204C3100202D204C65667400E2
:100A0000202D20446F776E00202D20526967687476
:100A100000202D20557000202D20537175617265C6
:100A200000202D2043726F737300202D20436972C4
:100A3000636C6500202D20547269616E676C6500DF
:100A4000202D205053000D0A50533320436F6E74F5
:100A5000726F6C6C6572000D0A52323A20000D0AFA
:100A60004C323A20000D0A52696768744861745923
:100A70003A20000D0A5269676874486174583A2038
:100A8000000D0A50533320426C7565746F6F7468A3
:100A9000204C69627261727920537461727465646A
:100AA000000D0A4F534320646964206E6F742073F5
:100AB000746172740000002100240027002A002DB8
:100AC000003000330001010000040107010A0100A9
:100AD000002200250028002B002E003100340002E7
:100AE000010000050108010B010000200023002681
:100AF0000029002C002F0032000001000003010635
:100B00000109010505050507050808080802020294
:100B1000020A0A0808040404040101010101010198
:100B2000010303030303030303040707070C0C0C6F
:100B30000C0C0C0C0C020202020606060606060647
:100B4000060B0B0B0B0B0B0B0B01021020200808E4
:100B5000102040102040800201020108040201011F
:100B60000204081020408080402010080402018008
:100B7000040201804020100804020108040201015F
:100B80000204081020408001020408102040800068
:100B900000090A02080B0C0D0706030401000000FF
:100BA0000000000000000000000000000000000045
:100BB000000000000000000000000011100F000005
:100BC0000000000000000000000000000000000025
:100BD00000000000000026064D224D3358336333D9
:100BE00072337D338833B133B833213E39446345A2
:100BF00011241FBECFEFD1E2DEBFCDBF00E00CBF9E
:100C000014E0A0E0B2E0ECE5F7EA00E00BBF02C0C0
:100C100007900D92AC37B107D9F71EE0ACE7B4E00E
:100C200001C01D92A032B107E1F71BE0C0EFDBE08D
:100C300004C02297FE010E946F4EC63DD107C9F73E
:100C40000E9452480C94AC530C94000008950F93EA
:100C50001F93CF93DF93DB01142F052F8DB79EB722
:100C60000C970FB6F8949EBF0FBE8DBFEDB7FEB7C1
:100C70003196CDB7DEB74983518389E691E09383FE
:100C800082838C918483158211968C91119786832F
:100C9000178212968C9112978087118613968C91E9
:100CA000828713860E94C5508DB79EB70C960FB6EB
:100CB000F8949EBF0FBE8DBF812F902FDF91CF91F3
:100CC0001F910F910895403885E2580780E068072A
:100CD00080E0780728F440E855E260E070E00CC05E
:100CE000413080E4580788E3680780E0780720F007
:100CF00040E050E468E370E081E99DE00E940B432E
:100D00008091C20088608093C200089581E99DE0CF
:100D10000E949143892BD1F381E99DE00E94C24357
:100D200008952F923F924F925F926F927F928F928F
:100D30009F92AF92BF92CF92DF92EF92FF920F936A
:100D40001F93DF93CF93CDB7DEB728970FB6F894F4
:100D5000DEBF0FBECDBF98878F832B015A83498397
:100D600039011C830B83FE82ED82FC01818182307C
:100D7000C9F4FB0190819F3F29F080911F049817CF
:100D800009F0D2C1C114D10469F480911F04F201A9
:100D900080838091D5049091D604E981FA81918372
:100DA0008083C2C1EE24FF242AE3222E312C8F81BE
:100DB0009885280E391EEF81F88581818130F9F000
:100DC000813020F0823009F07AC152C181E0EF8198
:100DD000F88581839FEF90931F041092D6041092A0
:100DE000D5041092CC041092CB041092CA04109235
:100DF000C6041092C7041092C8041092C9048091CE
:100E0000CC04883008F0ACC181E99DE00E94914398
:100E1000892B09F4A5C11091CC0481E99DE00E94C1
:100E2000C243E12FF0E0E353FB4F80831F5F109339
:100E3000CC04E5CF8091CD04823509F09BC0809130
:100E4000CE04833509F0F4C08091CF04893409F0D1
:100E5000EFC08091D0048F3509F0EAC08091D104B1
:100E6000823509F0E5C08091D204853409F0E0C0F4
:100E70008091D304813409F0DBC08091D4048434A0
:100E800009F0D6C08F8198850E94860680931F0442
:100E90008F8198850E948606082F10E01093D60453
:100EA0000093D5048F8198850E948606982E882409
:100EB000C401802B912B9093D6048093D50420916C
:100EC0001F042F3F11F0892B59F4EF81F88511820F
:100ED000FFEFF0931F041092D6041092D504EFC0D8
:100EE00082E0EF81F8858183F10190E080818217B3
:100EF00091F58181813079F58F8198850E948606F0
:100F00008093C6048F8198850E9486068093C704CB
:100F10008F8198850E9486068093C8048F8198856A
:100F20000E9486068093C9048F8198850E94860658
:100F3000082F10E01093CB040093CA048F8198858A
:100F40000E948606B82EAA240A291B291093CB04D6
:100F50000093CA0404C09F5F3296983039F6F201BC
:100F600090819F3F09F4A8C080911F04981709F44D
:100F7000A3C0DAC0833509F05BC08091CE04893408
:100F800009F056C08091CF048F3509F051C080918F
:100F9000D004833409F04CC08091D1048C3409F022
:100FA00047C08091D2048F3409F042C08091D304AD
:100FB0008335F1F58091D4048534D1F58F819885FE
:100FC0000E94860680931F048F8198850E94860662
:100FD0008F8198850E9486061092D6041092D504BF
:100FE000EF81F885118290911F04F101A0E0B0E03B
:100FF0008081891799F4FD017D96EE0FFF1F8F8187
:101000009885E80FF91F9FEF9083AA0FBB1FEF8110
:10101000F885AE0FBF1FDB969C9305C011963296E4
:10102000A830B10529F711E0EE24EA94FE2C4AC05D
:10103000F7E0F093CC048091CE048093CD048091AE
:10104000CF048093CE048091D0048093CF0480910C
:10105000D1048093D0048091D2048093D1048091F4
:10106000D3048093D2048091D4048093D30427C006
:101070008F8198850E948606ED81FE818083089489
:10108000C108D1080894E11CF11C8091D50490910D
:10109000D60401979093D6048093D504892B61F4EC
:1010A0008F8198850E9486068F8198850E9486068A
:1010B000EF81F885118205C0C114D10411F010E050
:1010C00001C011E081E99DE00E949143892B19F054
:1010D000112309F470CE80911F04F2018083809166
:1010E000D5049091D604E981FA81918380836114BB
:1010F000710469F08091C604F30180838091C70474
:1011000081838091C80482838091C90483838B8109
:101110009C81892B59F08091CA049091CB04EB817A
:10112000FC819183808302C0EE24FF24C7012896AE
:101130000FB6F894DEBF0FBECDBFCF91DF911F91E8
:101140000F91FF90EF90DF90CF90BF90AF909F9066
:101150008F907F906F905F904F903F902F90089569
:101160008091CC04883008F065CEA9CF2F923F92B1
:101170004F925F926F927F928F929F92AF92BF92A7
:10118000CF92DF92EF92FF920F931F93DF93CF9353
:10119000CDB7DEB760970FB6F894DEBF0FBECDBFF8
:1011A0002C017D876C874E872F87388B380117017C
:1011B0004601FC018181823009F431C181E99DE061
:1011C0000E949143892BD1F08FEF89831B821A8271
:1011D000C201BE016F5F7F4FAE014E5F5F4F20E0E7
:1011E00030E000E010E0EE24FF24CC24DD240E9457
:1011F00091068A819B81892B09F011C18F8598897D
:10120000FC018F01649106C081E99DE00E94FD43CD
:10121000F80164910F5F1F4F6623B1F761147104E9
:1012200041F40BC00894611C711C81E99DE00E948F
:10123000FD43F30160816623A9F72114310481F194
:1012400081010F5F1F4FF101649128C06B3D71F464
:1012500081E99DE00E94FD4381E99DE06DED0E94E2
:10126000FD43F8010F5F1F4F649118C06D3009F006
:10127000F0C0F80184918A3009F0EBC081E99DE06B
:101280006BED0E94FD4381E99DE06CED0E94FD4302
:10129000F80131968F010F5F1F4F64916623B1F6FD
:1012A000A114B104C9F1F40160816B3D69F481E9D5
:1012B0009DE00E94FD4381E99DE06DED0E94FD43AC
:1012C0000894811C911C24C06D30D9F4F4018181F3
:1012D0008A30B9F4F2E0AF16B10498F081E99DE0EC
:1012E0006BED0E94FD4381E99DE06CED0E94FD43A2
:1012F00082E090E0880E991EEEEFFFEFAE0EBF1E6B
:10130000CFCF0894811C911C81E99DE00E94FD4390
:101310000894A108B108C4CF81E99DE06DE00E9466
:10132000FD4381E99DE06AE00E94FD43FE85FF23C5
:1013300089F51C821986DD24E12C79E0F72E7DE306
:10134000072F112D64E0A62EB12CAC0EBD1E81E935
:101350009DE00E949143892B91F081E99DE00E94DC
:10136000C24397E09D1528F0F501ED0DF11D808336
:10137000D39450EDE52E53E0F52E012D112D089458
:10138000E108F10801091109E114F1040105110551
:10139000F1F636C0EC85FD8510821582DD24E12C46
:1013A00049E0F42E4DE3042F112D81E99DE00E94C8
:1013B0009143892B99F081E99DE00E94C243FE850B
:1013C000DF1630F4EC85FD85ED0DF11D8083D3949F
:1013D00030EDE32E33E0F32E012D112D0894E108BA
:1013E000F10801091109E114F10401051105E9F6FB
:1013F000EC85FD8580818C8381818D8385818987C2
:101400008C818F3429F48D818B3411F480E008C0F5
:101410008985882321F08D3011F08A3009F48FEF0F
:1014200060960FB6F894DEBF0FBECDBFCF91DF91AF
:101430001F910F91FF90EF90DF90CF90BF90AF90F2
:101440009F908F907F906F905F904F903F902F90E4
:10145000089581E99DE00E94FD43F8010F5F1F4F51
:1014600064911CCFAF92BF92CF92DF92EF92FF9226
:101470000F931F939B0160E070E040E000E010E0FC
:10148000EE24FF24CC24DD24AA24BB240E94B60829
:101490001F910F91FF90EF90DF90CF90BF90AF9092
:1014A00008950F931F938C0168EE73E00E94320A37
:1014B000C8016AED73E00E94320A1F910F910895EE
:1014C000AF92BF92CF92DF92EF92FF920F931F9352
:1014D0009B018A0160E070E040E0EE24FF24CC2410
:1014E000DD24AA24BB240E94B6081F910F91FF900F
:1014F000EF90DF90CF90BF90AF900895AF92BF92E2
:10150000CF92DF92EF92FF920F931F93FB01DA01CC
:101510006901580160E070E040E09F018D01EE2418
:10152000FF240E94B6081F910F91FF90EF90DF906B
:10153000CF90BF90AF900895AF92BF92CF92DF92BD
:10154000EF92FF920F931F93FB018A01790160E0F4
:1015500070E040E09F01CC24DD24AA24BB240E943B
:10156000B6081F910F91FF90EF90DF90CF90BF9042
:10157000AF900895AF92BF92CF92DF92EF92FF9219
:101580000F931F9300E010E0EE24FF24CC24DD2411
:10159000AA24BB240E94B6081F910F91FF90EF90E0
:1015A000DF90CF90BF90AF9008959F92AF92BF927F
:1015B000CF92DF92EF92FF920F931F93DF93CF931F
:1015C00000D0CDB7DEB75C01962E81E99DE00E9488
:1015D0009143892BA9F08FEF89831B821A82C50161
:1015E000BE016F5F7F4FAE014E5F5F4F20E030E086
:1015F00000E010E0EE24FF24CC24DD240E949106BC
:10160000F501FA9690E08081891511F480E005C01B
:101610009F5F32969830B9F781E00F900F900F904E
:10162000CF91DF911F910F91FF90EF90DF90CF90BE
:10163000BF90AF909F900895CF93DF9381E99DE095
:101640000E94EB43C0E0D0E08091C10085FD06C060
:1016500081E99DE00E949143892B51F021968DE311
:10166000CA30D80729F081E99DE00E94C243ECCF3F
:1016700080E49CE90197F1F7DF91CF910895DC01B7
:1016800011961C921197FC01FA9680E09FEF9083CF
:1016900091838F5F32968830D1F7CD010E941C0B69
:1016A00008950F931F938C010E943F0BC80163EABA
:1016B00072E00E94320A1F910F9108950F931F93B9
:1016C0008C010E941C0BF8011182759A1F910F91D9
:1016D00008950F931F938C010E941C0BF80142A9DF
:1016E00053A964A975A9C8010E946306F801118273
:1016F00075981F910F9108959F92AF92BF92CF92CC
:10170000DF92EF92FF920F931F93DF93CF93CDB7AA
:10171000DEB728970FB6F894DEBF0FBECDBF7C01B1
:101720006B01942E5901C8018E010F5F1F4FB80144
:101730004AE050E00E947F50C701B601492D950153
:10174000EE24FF24CC24DD24AA24BB240E94B60866
:1017500028960FB6F894DEBF0FBECDBFCF91DF91B4
:101760001F910F91FF90EF90DF90CF90BF90AF90BF
:101770009F9008950F931F939B018A0160E070E092
:1017800040E00E947C0B1F910F910895AF92BF9291
:10179000CF92DF92EF920F931F93CF93DF93EC01E1
:1017A0005B016A011E2D213041F0213018F02230FA
:1017B000D9F40EC06FE773E005C04115510529F05B
:1017C00063E673E00E94320A0FC06BE473E0FACF65
:1017D0004115510519F060E373E002C069E173E05F
:1017E000402F50E00E94BA0B112321F4CE0167E094
:1017F00073E005C0113029F4CE0165EF72E00E945C
:10180000320AC114D10431F0CE0169EE72E0A601B2
:101810000E94600A8881813069F0813020F0823036
:1018200081F080E016C0CE016CED72E0A50127EDDD
:1018300032E00DC0CE016AEC72E0A50125EC32E089
:1018400006C0CE0168EB72E0A50123EB32E00E94F6
:101850009C0ADF91CF911F910F91EF90DF90CF9075
:10186000BF90AF900895EF920F93342F022F40E076
:1018700050E0232FEE24EA940E94C60B0F91EF90C4
:101880000895FF920F931F93CF93DF93EC01F62EF1
:101890008A01BC016E5F7F4FFF2049F440E32DEFCA
:1018A00031E00E947C0B882349F59C810AC040E30B
:1018B00020EF31E00E947C0B882301F59C81FF24FE
:1018C000F3949F3FE1F0FE01FA96A0E0B0E0808142
:1018D0008F3F71F4FD017D96EE0FFF1FEC0FFD1F92
:1018E0009083AA0FBB1FAC0FBD1FDB96FC9207C0F5
:1018F00011963296A830B10551F701C09FEF892F9C
:10190000DF91CF911F910F91FF9008952F923F92F9
:101910004F925F926F927F928F929F92AF92BF92FF
:10192000CF92DF92EF92FF920F931F93CF93DF93AB
:101930006C012A01390158014701EC012296FC2E65
:10194000ED2E00D000D0EDB7FEB73196ADB7BEB7E3
:101950001196CC93D18306E611E01383028364834E
:1019600015820E94C550EDB7FEB736960FB6F894B3
:10197000FEBF0FBEEDBFCE0165ED71E00E94595074
:101980003C2E2D2EFE0101900020E9F7319700D06A
:1019900000D02DB73EB72F5F3F4FEC1B8E2F90E04E
:1019A00002968C0D9D1DADB7BEB712969C938E937B
:1019B0001197F90113830283758264820E94C550D6
:1019C0008DB79EB706960FB6F8949EBF0FBE8DBF1B
:1019D000A114B104B1F0CE0163ED71E00E94595041
:1019E000DE010D900020E9F71197AC1B4A2F50E063
:1019F0004E5F5F4F4C0D5D1DC601B5010E9427066D
:101A000005C0CE0160ED71E00E945950811491042F
:101A100089F18F2D9E2D6EEC71E00E945950A32DFF
:101A2000B22DFD0101900020E9F7319700D000D0E0
:101A30002DB73EB72F5F3F4FE3198E2F90E00296F0
:101A40008C0D9D1DADB7BEB712969C938E931197CA
:101A500086E691E0F90193838283958284820E94D5
:101A6000C5508DB79EB706960FB6F8949EBF0FBEB1
:101A70008DBF06C08F2D9E2D6BEC71E00E945950DA
:101A80008F2D9E2D69EC71E00E945950C6016DEBBF
:101A900071E04F2D5E2D920183010E947E0ADF913D
:101AA000CF911F910F91FF90EF90DF90CF90BF905B
:101AB000AF909F908F907F906F905F904F903F90EE
:101AC0002F9008956F927F929F92AF92BF92CF9284
:101AD000DF92EF92FF920F931F93CF93DF93EC016E
:101AE000962E6A01590138010E943F0B1EAA1FAAB7
:101AF00018AE19AE8E010E5F1F4F80E3F8011192F0
:101B00008A95E9F7F2E09F1659F4CE01B80140E357
:101B10002FE832E00E94BA0A882379F082E089C077
:101B20009920A9F0CE01B80140E32BE732E00E94F2
:101B3000BA0A882311F081E07CC08A859B85AC8538
:101B4000BD858EAB9FABA8AFB9AF80E072C0A114CA
:101B5000B10459F0CE01B501A8010E942706CE01BB
:101B600069E672E0A8010E94600A8E010E5F1F4FB5
:101B7000C114D10479F0CE01B601A8010E94270654
:101B8000F60180819181A281B3818EAB9FABA8AF1A
:101B9000B9AF0CC0C8016DE572E00E94595080ECED
:101BA0008EAB88EA8FAB18AE81E089AF8E010E5FF5
:101BB0001F4FE114F104B1F0C8016BE572E00E941F
:101BC0005950D8010D900020E9F71197A01B4A2F1A
:101BD00050E04E5F5F4F4C0F5D1FCE01B7010E947A
:101BE000270605C0C8016CE472E00E9459506114D8
:101BF0007104C1F08E010E5F1F4FC8016AE472E0EC
:101C00000E945950F80101900020E9F73197E01B3C
:101C10004E2F50E04E5F5F4F4C0F5D1FCE01B30162
:101C20000E942706CE0169E372E02296AE010E946F
:101C3000600ADF91CF911F910F91FF90EF90DF909D
:101C4000CF90BF90AF909F907F906F900895CF926C
:101C5000DF92EF92FF920F931F93FB01DA0169016C
:101C6000780160E0AF019D0186010E94620D1F9125
:101C70000F91FF90EF90DF90CF900895AF92BF92B9
:101C8000CF92DF92EF92FF920F931F93CF93DF9348
:101C9000EC017A018B01C22E83E061E00E94994938
:101CA000759A82E061E00E949949749881E061E050
:101CB0000E949949719A80E060E00E949949709A67
:101CC0001EAA1FAA18AE19AECE010296FC0180E32F
:101CD000DF011D928A95E9F7EAAAFBAA0CAB1DABBE
:101CE000CE01B801A7010E946306CE010E94690BD4
:101CF00080E49CE9FC013197F1F70197F1F77498C2
:101D00002EE140E45CE9CA010197F1F72150D9F7CF
:101D1000749A2AE040E45CE9CA010197F1F7215086
:101D2000D9F724E0D22E90E4A92E9CE9B92E81E9BE
:101D30009DE06CE10E94FD4380E9E82E80EDF82EE5
:101D400083E0082F112D81E99DE00E949143892BAA
:101D5000F1F081E99DE00E94C2438535C1F481E93B
:101D60009DE065E50E94FD432AE0C5010197F1F77A
:101D70002150D9F781E99DE06EE60E94FD4381E99B
:101D80009DE06AE00E94FD43DD24D3940AC00894DC
:101D9000E108F10801091109E114F1040105110537
:101DA00091F6DA9409F0C3CF24E140E45CE9CA017A
:101DB0000197F1F72150D9F713E000E4E02E0CE988
:101DC000F02ECE010E941C0BCE016AE674E00E9448
:101DD000320A882369F4CE016CE574E00E94320A6D
:101DE000CE0160E574E00E94320AC88280E009C03A
:101DF0002AE0C7010197F1F72150D9F7115009F7EF
:101E00000BC0DF91CF911F910F91FF90EF90DF906A
:101E1000CF90BF90AF900895CE010E945E0B8FEFE0
:101E2000F0CF40E855E260E070E022E00E943E0E14
:101E30000895FC0181850895CF93DF93DC0185E34C
:101E400094E011969C938E9318967C936E931797BB
:101E500019961C92199756961C925697ED0120E000
:101E600030E01A86922F222311F080E001C088E032
:101E70008B871C86992359F4F901EE0FFF1FE20F9F
:101E8000F31FEA0FFB1F84858370886384872F5FAD
:101E90003F4F23962430310521F71796CD91DC91E1
:101EA00018972097C1F0FE01EA5AFF4F20E030E07A
:101EB00080819181892B49F4255D3F4F220F331F8B
:101EC000C20FD31FB983A88306C02F5F3F4F32963E
:101ED0002031310569F7AD59BF4F1C9285E18E93D2
:101EE00083E88E938DE38E938AE08E9387E58E93BD
:101EF0001B961C9281E28E938FE48E938FE78E93D4
:101F00008DE78E93FD0188E58293DF91CF9108954F
:101F10000F931F938C01DC011796ED91FC9118979C
:101F2000A081B18114962D913C911597CF01F801B4
:101F30006185F9011995D80119961C921997569641
:101F40001C9280E01F910F910895FC018FEFE63500
:101F5000F80711F440E011C040E0872F90E0E80F4F
:101F6000F91FE655FF4F808190E0262F30E0822355
:101F70009323181619060CF441E0842F0895FC01F0
:101F80008FEFE635F80711F480E00895E60FF71FAC
:101F9000E655FF4F80810895FC018FEFE635F80785
:101FA00011F480E00895E60FF71FE655FF4F80819A
:101FB0000895EF92FF920F931F93FC016233710516
:101FC00049F06433710531F06633710519F06833F7
:101FD000710569F48FEFE635F80709F45EC0E60F86
:101FE000F71FE555FF4F208130E0929126C06F32F8
:101FF000710519F06133710549F58FEFE635F80782
:1020000009F44BC06F32710549F4E752FF4F8191DB
:10201000382F3295307F20E0808126C061337105F2
:10202000E1F5E552FF4F8191382F3295307F20E066
:102030004081942F97959927979580E0282B392BED
:1020400079010027F7FC0095102F2AC086559F4F75
:102050006E32710581F4892B01F1E752FF4F208127
:1020600022952F7030E0829190E064E0880F991FF4
:102070006A95E1F7E3CF892B81F0E60FF71FE5556D
:10208000FF4F308120E0829190E0282B392B2050A7
:102090003048790100E010E003C0EE24FF248701FE
:1020A000B701C8011F910F91FF90EF900895CF9352
:1020B000DF93EC01CE54DF4F8881C25BD040813A80
:1020C00009F063C08A81882319F48C81882391F0F8
:1020D000FE01EA5BFF4FCA54DF4F388120E08A914E
:1020E00090E0282B392B40E050E022968881C75B96
:1020F000D04014C08B818823F9F0FE01EA5BFF4FCA
:10210000CB54DF4F388120E08A9190E0282B392B87
:1021100040E050E022968881C65BD04090E0A0E08D
:10212000B0E0DC0199278827282B392B4A2B5B2B21
:102130002083318342835383FE01EA5BFF4FC65BFA
:10214000DF4F208131814281538188819981AA8129
:10215000BB81CA54D040281739074A075B0749F0AA
:1021600081E08D83211531054105510519F08E83DC
:1021700002C01D821E82CA5BDF4F89919991A9918D
:10218000B99188839983AA83BB83DF91CF91089506
:10219000EF92FF920F931F93DF93CF93CDB7DEB7EC
:1021A000C054D0400FB6F894DEBF0FBECDBF7C0147
:1021B0008A01FC01808D8983808D918D892F990FF3
:1021C000990B8F7080628A83842F8C5F8B830C5F66
:1021D0001F4F1C83045010400D831E8320EA31E002
:1021E000E20EF31EF70181917F018F8380812FE53D
:1021F0003EEFE20EF31E8887DB01FE0131969F0160
:10220000200F311F03C08D9180873196E217F307AD
:10221000D1F70E94A9489B01AC018EE490E0E80E42
:10222000F91EF70181919191A191B1917F01281B34
:10223000390B4A0B5B0B20833183428353838EEA35
:102240009FEFE80EF91E2B3F31054105510550F473
:102250006AEF70E080E090E0621B730B840B950BDB
:102260000E94DD48085F1F4FF701878190856185D7
:10227000438998018E010F5F1F4F0E942A2F0E94F1
:10228000A9482EE430E0E20EF31EF701608371836B
:1022900082839383C05CDF4F0FB6F894DEBF0FBE1E
:1022A000CDBFCF91DF911F910F91FF90EF900895D7
:1022B0000F931F93FC01CA01DB01E359FE4F8D010F
:1022C000332717FD3095232F0193892F9A2FAB2F9A
:1022D000BB27A7FDBA9581934083EF56F140CF010C
:1022E000E659FE4FBF0142E350E00E94C8101F9123
:1022F0000F910895EF92FF920F931F93DF93CF9367
:10230000CDB7DEB7C054D0400FB6F894DEBF0FBED5
:10231000CDBF7C018A01FC01808D8983808D918DE8
:10232000892F990F990B8F7080628A83842F8C5F1D
:102330008B830C5F1F4F1C83045010400D831E8342
:102340002CE931E0E20EF31EF70181917F018F83CA
:10235000808123E63EEFE20EF31E8887DB01FE015B
:1023600031969F01200F311F03C08D9180873196D8
:10237000E217F307D1F70E94A9489B01AC018EE454
:1023800090E0E80EF91EF70181919191A191B19130
:102390007F01281B390B4A0B5B0B2083318342835F
:1023A00053838EEA9FEFE80EF91E2B3F310541055E
:1023B000510550F46AEF70E080E090E0621B730B0F
:1023C000840B950B0E94DD48085F1F4FF701878142
:1023D00090856185438998018E010F5F1F4F0E9490
:1023E0002A2F0E94A9482EE430E0E20EF31EF701E6
:1023F0006083718382839383C05CDF4F0FB6F89450
:10240000DEBF0FBECDBFCF91DF911F910F91FF9027
:10241000EF900895DF93CF93CDB7DEB72C970FB62B
:10242000F894DEBF0FBECDBF23E5298324EF2A83B6
:1024300022E42B8323E02C831D821E82BE016F5F6A
:102440007F4F46E050E00E947A112C960FB6F89428
:10245000DEBF0FBECDBFCF91DF9108959C01FC017F
:10246000EB5CFE4F6F70660F8081862B8083C90105
:10247000265D3E4FB90142E350E00E947A11089573
:10248000BC01DC01A45DBE4F80E090E0FC01E4589B
:10249000FB4FE491ED93019680339105B9F7CB01A1
:1024A000665D7E4F42E350E00E947A1108951F93CB
:1024B000182F803130F481E99DE060E072E00E94E5
:1024C000BA4681E99DE0612F40E150E00E94A846B4
:1024D0001F910895CF92DF92FF920F931F93DF9386
:1024E000CF93CDB7DEB7C054D0400FB6F894DEBF5F
:1024F0000FBECDBF8C01DA01FC01808D8983808DF8
:10250000918D892F990F990B8F7080628A83842F08
:102510008C5F8B831496BC831497AD83BE8381E05C
:102520008F831886AB016E010894C11CD11CC601B3
:102530007C2DF92E96012A0F3B1F08C0FA018191CC
:10254000AF01F60180870894C11CD11CC216D306C6
:10255000A9F71896F80187819085618543899D01C7
:10256000072F1F2D0E942A2F182F882339F08CEA5D
:1025700094E00E943333812F0E945712C05CDF4FDA
:102580000FB6F894DEBF0FBECDBFCF91DF911F9184
:102590000F91FF90DF90CF900895CF93DF93FC01D0
:1025A000D9019C0126513F4F87E0E9018883E5511D
:1025B000FF4F619384E0819311928C9181931196E6
:1025C0008C918193DA018C91819311968C91808307
:1025D000E15FF040CF01B90148E050E00E946A128B
:1025E000DF91CF910895CF93DF93FC01D9019C0136
:1025F00026513F4F86E0E9018883E551FF4F619303
:1026000084E0819311928C91819311968C918193A6
:10261000DA018C91819311968C918083E15FF04077
:10262000CF01B90148E050E00E946A12DF91CF91DA
:102630000895CF93DF93FC01DA019C0126513F4FAF
:1026400085E0E9018883E551FF4F61938AE081933A
:1026500011928C91819311968C9181931192119288
:102660001192119281E0819392E0919380EA81939B
:102670009083E75FF040CF01B9014EE050E00E9447
:102680006A12DF91CF910895CF93DF93FC01DA01B5
:102690009C0126513F4F84E0E9018883E551FF4FBB
:1026A000619388E0819311928C91819311968C9122
:1026B00081931192119281E0819382E081938FEF57
:1026C00081938083E55FF040CF01B9014CE050E099
:1026D0000E946A12DF91CF9108950F93CF93DF93F9
:1026E000FC01DA01AC0146515F4F83E0EA018883C7
:1026F000E551FF4F619388E0819311928C91819312
:1027000011968C918193D9018C91819311968C9122
:1027100081930193119211921082E55FF040CF01F5
:10272000BA014CE050E00E946A12DF91CF910F9104
:1027300008958F929F92AF92BF92CF92EF920F9394
:10274000CF93DF93DC014A01FC01EF5BFF4F8081F7
:1027500091818E7F9183808300D000D0EDB7FEB74A
:10276000319617968D919C911897CDB7DEB75A8305
:102770004983738362831582148219966C91199729
:102780001A964C9120E200E0EE24CC24AA24BB242B
:102790000E9440308DB79EB706960FB6F8949EBF44
:1027A0000FBE8DBFDF91CF910F91EF90CF90BF9073
:1027B000AF909F908F900895FC01DC01AF5BBF4FFD
:1027C0008D919C911197877F8D939C93DF01A659E2
:1027D000BF4F86E08C93E559FF4F84E0819383E0FF
:1027E0008083EC56F040808DE359FF4F8083ED5697
:1027F000F040808D918D892F990F990B8F70E25940
:10280000FF4F8083319683E18083EF56F040CF0104
:10281000BD0146E050E00E94991308958F929F9267
:10282000AF92BF92CF92DF92EF92FF920F931F93DE
:10283000CF93DF93EC01B3E48B2E912C880E991E7D
:10284000F4018081853009F4B6C0863080F482308E
:1028500009F457C0833020F4813009F0ABC11AC0AD
:10286000833009F466C0843009F0A4C16DC088309B
:1028700009F441C1893038F4863009F4B2C0873098
:1028800009F098C1B9C0893009F465C18A3009F0EE
:1028900091C17DC1CC5BDF4F8881C454D04080FFA3
:1028A00089C189E296E00E943333AEE9AA2EA1E005
:1028B000BA2EAC0EBD1EFCE9CF2EF1E0DF2ECC0E01
:1028C000DD1EE4EAEE2EE1E0FE2EEC0EFD1ECE0152
:1028D000F7016081A501960101E00E946D13CE0110
:1028E000F7016081A501960100E00E946D13F701D8
:1028F00060816F5F6083CE01A6010E94441382E075
:1029000015C0CC5BDF4F8881C454D04081FF52C1D9
:1029100085E096E00E943333AE0144565E4FCE010F
:10292000CC55DE4F68810E94191383E0F401808347
:1029300041C1CC5BDF4F888182FF3CC18FED95E0C8
:102940000E94333384E0F2CFCC5BDF4F8881C454E4
:10295000D04083FF2FC183EB95E00E94333372EAAE
:10296000A72E71E0B72EAC0EBD1E60EAC62E61E048
:10297000D62ECC0EDD1E54EAE52E51E0F52EEC0EDF
:10298000FD1ECE01F7016081A501960101E00E94C4
:102990006D13CE01F7016081A501960100E00E9450
:1029A0006D13F70160816F5F6083CE01A6010E9405
:1029B000441385E0BBCFCC5BDF4F8881C454D0404B
:1029C00084FFF8C08DE895E00E943333AE01405695
:1029D0005E4FCE01CC55DE4F68810E94191386E010
:1029E000A5CFCC5BDF4F888185FFE4C085E695E00D
:1029F0000E94333387E09ACF68EE73E080E090E086
:102A00000E94DD48FE01E655FF4F80E011928F5F86
:102A10008034E1F7CA5BDF4F19921992199219922B
:102A2000188219821A821B82CA54D04088A180352C
:102A3000F1F4CE010E940A12CE0161E070E00E9422
:102A40002E12C754DF4F8FE7899389938993888328
:102A5000CC5BD04068EE73E080E090E00E94DD48FF
:102A600084E495E00E94333381E08A833FC08E3452
:102A7000F1F4CE010E940A12CE0161E070E00E94E2
:102A80002E12C754DF4F8FE78993899389938883E8
:102A9000CC5BD04068EE73E080E090E00E94DD48BF
:102AA00084E295E00E94333381E08C831FC08D3433
:102AB000E9F4CE0140E050E06FEF70E00E94581161
:102AC00068EE73E080E090E00E94DD4888E095E0E9
:102AD0000E94333381E08B830E94A948CA5ADF4F9A
:102AE000688379838A839B83C655D040CD5BDF4F53
:102AF00088E088835FC08B81882309F45BC00E94D3
:102B0000A9488E010A5A1F4FF80120813181428164
:102B10005381621B730B840B950BC65ADF4F68837E
:102B200079838A839B83CA55D040615A7F40804015
:102B3000904008F43FC0CE01C659DE4FBE0142E3CB
:102B400050E00E94C8100E94A948F8016083718378
:102B5000828393832FC0CC5BDF4F8881C454D040E5
:102B600087FF28C087EE94E00E943333FE01EC55C6
:102B7000FE4F60816F5F60839E0124563E4FCE0101
:102B8000C256DE4FAE010E94F3128AE0CFCECC5B7C
:102B9000DF4F8881C454D04086FF0CC088EC94E09D
:102BA0000E943333CE010E94DC1388E0F40180835D
:102BB00089E08EAFDF91CF911F910F91FF90EF9041
:102BC000DF90CF90BF90AF909F908F900895FC01C1
:102BD000DC01AF5BBF4F8D919C9111978F7D8D93E1
:102BE0009C93DF01A659BF4F89E18C93E559FF4FB4
:102BF00084E081938AE08083EC56F040828DE35933
:102C0000FF4F8083ED56F040838DE259FF4F808364
:102C1000EE56F040848DE159FF4F8083EF56F0402F
:102C2000858DE059FF4F8083E057F040868DEF5847
:102C3000FF4F8083E157F040878DEE58FF4F808330
:102C4000319681E08193119211921082E657F04003
:102C5000CF01BD014DE050E00E9499130895FC01A1
:102C6000DC01AF5BBF4F8D919C91119780618F7B91
:102C70008D939C93DF01A659BF4F89E08C93E55952
:102C8000FF4F84E0819387E08083EC56F040828D93
:102C9000E359FF4F8083ED56F040838DE259FF4F9B
:102CA0008083EE56F040848DE159FF4F8083EF56CC
:102CB000F040858DE059FF4F8083E057F040868DCE
:102CC000EF58FF4F8083E157F040878DEE58FF4F5C
:102CD000808331961082E357F040CF01BD014AE076
:102CE00050E00E9499130895FC01DC01A659BF4FE2
:102CF00089E08C93E559FF4F80E181931082EC5677
:102D0000F040CF01BD0143E050E00E9499130895C7
:102D1000FC01DC01A659BF4F8AE18C93E559FF4FB6
:102D20008CE0819381E081931082ED56F040CF01D9
:102D3000BD0144E050E00E9499130895FC01DC01BC
:102D4000A659BF4F8AE18C93E559FF4F8CE08193E0
:102D500081E0819382E08083ED56F040CF01BD0198
:102D600044E050E00E9499130895FC01EF5BFF4F8F
:102D700011821082E154F040DF01A659BF4F83E079
:102D80008C93E559FF4F8CE081931082EC56F04014
:102D9000CF01BD0143E050E00E94991308956F9266
:102DA0007F928F929F92AF92BF92CF92EF920F93AA
:102DB000DF93CF93CDB7DEB72B970FB6F894DEBF76
:102DC0000FBECDBF3C01AC01425A5F4FDA0120E09B
:102DD00030E0FB01E20FF31F80818D932F5F3F4FA7
:102DE00026303105B1F785E0898380E1888781E06D
:102DF000898782E08A8782E18B87FE0132969E0175
:102E0000285F3F4FDA018D91AD018193E217F307FF
:102E1000C9F700D000D0EDB7FEB73196D3011796B1
:102E20008D919C9118972BE030E0ADB7BEB712960C
:102E30003C932E9311979E012F5F3F4F3383228344
:102E400015821482F3016185428521E209E075E073
:102E5000E72E53E0C52EAA24BB243BE0832E912C01
:102E60000E9440308DB79EB706960FB6F8949EBF6D
:102E70000FBE8DBF85EC97E00E94333303E6A02E92
:102E8000B12CA60CB71C05E0D5018C910E945712FD
:102E900081E99DE062E072E00E94BA460150089428
:102EA000A108B108002381F7EEE5F0E06E0E7F1E69
:102EB000D3018C910E9457122B960FB6F894DEBF67
:102EC0000FBECDBFCF91DF910F91EF90CF90BF900C
:102ED000AF909F908F907F906F9008954F925F92E8
:102EE0006F927F928F929F92AF92BF92CF92EF920A
:102EF0000F93DF93CF93CDB7DEB728970FB6F89433
:102F0000DEBF0FBECDBF3C01DC01A25ABF4F20E0A7
:102F100030E0FB01E20FF31F80818D932F5F3F4F65
:102F200026303105B1F781E089831A82B3E64B2E52
:102F3000512C460C571CDE011396F2019E01275FAF
:102F40003F4F80818D933197A217B307D1F700D0FF
:102F500000D0EDB7FEB73196D30117968D919C91B5
:102F6000189728E030E0ADB7BEB712963C932E9389
:102F700011979E012F5F3F4F338322831582148266
:102F8000F3016185428521E209E0A5EFEA2EF3E035
:102F9000CF2EAA24BB24E8E08E2E912C0E94403034
:102FA0008DB79EB706960FB6F8949EBF0FBE8DBF25
:102FB00086EE97E00E94333305E0D2018C910E94A7
:102FC000571281E99DE062E072E00E94BA4601502A
:102FD000089441085108002381F7EEE5F0E06E0EF9
:102FE0007F1ED3018C910E94571228960FB6F89439
:102FF000DEBF0FBECDBFCF91DF910F91EF90CF908D
:10300000BF90AF909F908F907F906F905F904F9008
:103010000895CF93DF93EC018A81882311F01A82FF
:1030200008C08B81882311F01B8203C08C81811121
:103030001C8281E99DE067E072E00E94BD469E012E
:1030400020563E4FCE016AE0CE55DE4FAE010E94C3
:10305000F312CF55D14089E08883DF91CF91089555
:10306000CF92DF92EF92FF920F931F93DF93CF9354
:103070000F920F92CDB7DEB76C0180E490E09A8397
:1030800089831AEAE12EF12CEC0CFD1CD60117966F
:103090008D919C91189719966C91199750964C9117
:1030A0009E012F5F3F4F87010E940930EBEAF0E05D
:1030B000CE0EDF1ED6013C91E5E5FFEFCE0EDF1E02
:1030C00020E0D7018C9190E0282B392BF601808DE0
:1030D000918D90622817390709F0D9C220EB30E0B2
:1030E000C20ED31ED6014D916D015C91EFE4FFEF4E
:1030F000CE0EDF1E952F80E0242F30E0822B932B05
:10310000019709F097C222EB30E0C20ED31ED60120
:103110008C91EEE4FFEFCE0EDF1E813009F047C048
:103120008FEA96E00E943333F601E954FF4F808125
:103130000E94571281E99DE064E072E00E94BA4665
:10314000F601EA54FF4F80810E94571281E99DE009
:1031500068E172E00E94BA46F601E554FF4F8081B3
:103160000E94571281E99DE064E072E00E94BA4635
:10317000F601E654FF4F80810E94571281E99DE0DD
:1031800064E072E00E94BA46F601E754FF4F808186
:103190000E94571281E99DE064E072E00E94BA4605
:1031A000F601E854FF4F80810E9457126DC28230B1
:1031B00009F07AC026EB30E0C20ED31ED6018D9105
:1031C0006D01282F30E08C91E9E4FFEFCE0EDF1E79
:1031D00090E0282B392B2131310589F5F601EC558A
:1031E000FE4F23EB30E0C20ED31ED6018C912DE4AE
:1031F0003FEFC20ED31E8083F601E456FE4F48EB2C
:1032000050E0C40ED51ED6018C9128E43FEFC20ECB
:10321000D31E8083F601E356FE4F49EB50E0C40E07
:10322000D51ED6018C9127E43FEFC20ED31E8083BA
:10323000F601EC5BFF4F808191818160F8C1233101
:10324000310509F021C2F601EC55FE4F43EB50E089
:10325000C40ED51ED6018C912DE43FEFC20ED31EB5
:103260008083F601E056FE4F48EB50E0C40ED51EB9
:10327000D6018C9128E43FEFC20ED31E8083F60165
:10328000EF55FE4F49EB50E0C40ED51ED6018C9190
:1032900027E43FEFC20ED31E8083F601EC5BFF4FA5
:1032A000808191818860C3C1853009F076C046EB8A
:1032B00050E0C40ED51ED6012C91E8EEF0E0CE0E03
:1032C000DF1ED6018C91E2E6FEEFCE0EDF1E281740
:1032D00059F5F601E954FF4F4FE951E0C40ED51EF0
:1032E0009081D6018C91E1E6FEEFCE0EDF1E98179D
:1032F000D9F42BEB30E0C20ED31ED6019C9180E0B6
:10330000F60122916F0146E45FEFC40ED51E30E056
:10331000822B932B892B09F0B7C1F601EC5BFF4F91
:1033200080819181846083C182EA91E0C80ED91EB8
:10333000D6018C91EEE5FEEFCE0EDF1E281709F0C8
:10334000A3C1F601E954FF4F23EA31E0C20ED31EB8
:103350009081D6018C91EDE5FEEFCE0EDF1E981721
:1033600009F092C12BEB30E0C20ED31ED6019C9126
:1033700080E0F60122916F0146E45FEFC40ED51E96
:1033800030E0822B932B892B09F07EC1F601EC5B98
:10339000FF4F8081918180624AC1843009F06AC008
:1033A00086EB90E0C80ED91ED6012C91E8EEF0E035
:1033B000CE0EDF1ED6018C91E2E6FEEFCE0EDF1EB2
:1033C000281729F5F601E954FF4F4FE951E0C40EE3
:1033D000D51E9081D6018C91E1E6FEEFCE0EDF1E68
:1033E0009817A9F4F601EC55FE4F23EB30E0C20E1E
:1033F000D31ED6018C912DE43FEFC20ED31E8083E5
:10340000F601EC5BFF4F80819181826010C142EA3E
:1034100051E0C40ED51ED6018C91EEE5FEEFCE0E26
:10342000DF1E281709F030C1F601E954FF4F23EAE7
:1034300031E0C20ED31E9081D6018C91EDE5FEEFF6
:10344000CE0EDF1E981709F01FC1F601EC55FE4F96
:1034500023EB30E0C20ED31ED6018C912DE43FEF5A
:10346000C20ED31E8083F601EC5BFF4F80819181F9
:103470008061DDC0863009F06EC046EB50E0C40EBE
:10348000D51ED6012C91EAE4FFEFCE0EDF1E860199
:1034900002561E4FD8018C91281741F5F601E954C8
:1034A000FF4F4FE951E0C40ED51E9081D6018C919B
:1034B000E1E6FEEFCE0EDF1E9817C1F482E896E03B
:1034C0000E94333323EB30E0C20ED31ED6016C9141
:1034D000E1EFF0E0CE0EDF1ED6016C93ECE5FEEFDF
:1034E000CE0EDF1E960124563E4F30C086010E558B
:1034F0001E4FD8018C91281709F0C6C0F601E95477
:10350000FF4F23EA31E0C20ED31E9081D6018C9189
:10351000EDE5FEEFCE0EDF1E981709F0B5C083E58E
:1035200096E00E94333323EB30E0C20ED31ED60167
:103530006C91E1EFF0E0CE0EDF1ED6016C93ECE56E
:10354000FEEFCE0EDF1E960120563E4FC601A801AB
:103550000E94CD1299C0873009F096C026EB30E06A
:10356000C20ED31ED6012C91E6EEF0E0CE0EDF1E89
:10357000D6018C91E4E6FEEFCE0EDF1E281729F56A
:10358000F601E954FF4F4DE951E0C40ED51E90817C
:10359000D6018C91E3E6FEEFCE0EDF1E9817A9F45C
:1035A000F601EC55FE4F23EB30E0C20ED31ED601E0
:1035B0008C912DE43FEFC20ED31E8083F601EC5BAD
:1035C000FF4F80819181806432C040EA51E0C40E97
:1035D000D51ED6018C91E0E6FEEFCE0EDF1E281739
:1035E00009F052C0F601E954FF4F21EA31E0C20E62
:1035F000D31E9081D6018C91EFE5FEEFCE0EDF1E3B
:10360000981709F041C0F601EC55FE4F23EB30E06E
:10361000C20ED31ED6018C912DE43FEFC20ED31EF5
:103620008083F601EC5BFF4F8081918180689183FC
:1036300080832AC082EA91E0C80ED91ED6018C91FF
:10364000EEE5FEEFCE0EDF1E4817F1F423EA31E07F
:10365000C20ED31ED6018C91EDE5FEEFCE0EDF1E1D
:10366000581791F4D60112968C911297882349F439
:1036700013968C911397882321F414968C918823A8
:1036800019F0C6010E945710C6010E940E140F9037
:103690000F90CF91DF911F910F91FF90EF90DF90EE
:1036A000CF900895EF92FF920F931F93CF93DF93E4
:1036B000EC018EAD843009F48BC0853058F4813034
:1036C00071F18130D0F0823009F453C0833009F0B9
:1036D00053C175C0873009F4D3C0883038F48530C1
:1036E00009F486C0863009F047C1A2C0883009F4C9
:1036F000DCC0893009F040C1E1C08E01015C1F4F80
:10370000F801808191810196918380830B9708F461
:1037100033C1CE010E94B51681E08EAF26C0FE01F6
:10372000FF9680819181019691838083CF5BDF4FEB
:103730008881C154D04080FF09C089E997E00E9488
:10374000333382E08EAFCE010E9474168E01015C8D
:103750001F4FF80180819181895E934008F40CC16C
:103760008EE797E00E9433331EAEF801118210827B
:1037700003C1CF5BDF4F8881C154D04080FFFCC0C4
:1037800082E697E00E9433338E010D591F4F95E07A
:10379000F92EF80180810E94571281E99DE062E0D4
:1037A00072E00E94BA46FA9401501040FF2089F757
:1037B000FE01E25AFF4F80810E945712DBC08BE36B
:1037C00097E00E943333CE010E949E1684E0D3C05E
:1037D000CF5BDF4F8881C154D04086FFCDC088E2E7
:1037E00097E00E943333CE010E94E71585E0C3C005
:1037F000CF5BDF4F8881C154D04085FFBDC088E1D9
:1038000097E00E9433338E01FF24F80160A1662304
:1038100051F081E99DE00E94FD43F3940F5F1F4F3B
:10382000FEE1FF1691F7CE010E942F1686E0A3C09D
:10383000CF5BDF4F8881C154D04082FF9DC080E0C4
:1038400097E00E9433337E0105E010E0F701878D99
:103850000E94571281E99DE062E072E00E94BA4640
:10386000015010400894E108F1080115110571F7A5
:103870008A8D0E945712CE010E94881687E07BC075
:10388000CF5BDF4F8881C154D04080FF75C080EF8F
:1038900096E00E943333CC5BDF4F1982188281E0BF
:1038A0008A93C354D04088E066C0CF5BDF4F8881E5
:1038B000C154D04083FF60C089E05DC0CF5BDF4F63
:1038C0008881C154D04083FF57C083ED96E00E94A9
:1038D00033338E0185E0F82EF801878D0E94571250
:1038E00081E99DE062E072E00E94BA46FA940150DC
:1038F0001040FF2089F78A8D0E945712CC5BDF4F62
:1039000019821882239719821882C154D040FE016F
:10391000E659FF4F80E011928F5F8034E1F7FE019E
:10392000E655FF4F80E011928F5F8034E1F7FE0192
:10393000E651FF4F80E011928F5F8034E1F7DE01A6
:10394000A45DBE4F80E090E0FC01E458FB4FE491A1
:10395000ED93019680339105B9F7FE01E459FE4FCE
:1039600082E011928F5F8233E1F7CD5BDF4F1882E7
:10397000C354D04083E08EAFDF91CF911F910F9160
:10398000FF90EF900895CF92DF92EF92FF920F9306
:103990001F93DF93CF930F920F92CDB7DEB76C01D9
:1039A00080E490E09A8389832AE6E22EF12CEC0CE5
:1039B000FD1CD60117968D919C91189719966C91C4
:1039C00019971D964C919E012F5F3F4F87010E94D2
:1039D0000930F7018081853009F49DC0863038F4C4
:1039E000833009F469C0843009F017C1C0C08E303B
:1039F00031F08F3081F1873009F00FC1A5C0F60199
:103A0000EF5BFF4F808191818160918380832DE600
:103A100030E0C20ED31ED6018C91E3E9FFEFCE0E4B
:103A2000DF1E893009F0F9C02EE630E0C20ED31E49
:103A3000D6018C91E2E9FFEFCE0EDF1E803109F056
:103A4000ECC0F601E25AFF4F90E0828981939F5FBC
:103A50009630D9F7E2C0F601EF5BFF4F808191818C
:103A6000826091838083860104591F4FD8018C9115
:103A7000882309F4D2C08EEA97E00E943333F8011C
:103A800080810E94571281E99DE064E072E00E940B
:103A9000BA46F601E259FF4F80810E94571281E930
:103AA0009DE064E072E00E94BA46F601E159FF4FE2
:103AB00080810E945712B1C0F601EF5BFF4F408139
:103AC0005181CA018460918380832CE630E0C20E6C
:103AD000D31ED6018C9124E93FEFC20ED31E88235A
:103AE00009F09BC06EE670E0C60ED71ED6019C9111
:103AF00080E02E916D0163E97FEFC60ED71E30E0A6
:103B0000822B932BD60159969C938E9358974461A0
:103B10005183408382C0F601EF5BFF4F20813181EA
:103B20002860318320834CE650E0C40ED51ED601B8
:103B30008C9144E95FEFC40ED51E882309F06DC057
:103B40002F7E3183208369C0F60190E0ED58FF4F4E
:103B50008081E357F04080A39F5F31969E31B1F79B
:103B6000F601EF5BFF4F80819181806254C06CE66B
:103B700070E0C60ED71ED6018C91E4E9FFEFCE0EA1
:103B8000DF1ED6015A968C93EDE6F0E0CE0EDF1ED6
:103B9000D6018C91E3E9FFEFCE0EDF1ED6015B96D6
:103BA0008C93EEE6F0E0CE0EDF1ED6018C91E2E9BA
:103BB000FFEFCE0EDF1ED6015C968C93EFE6F0E0B1
:103BC000CE0EDF1ED6018C91E1E9FFEFCE0EDF1E97
:103BD000D6015D968C93E0E7F0E0CE0EDF1ED601B5
:103BE0008C91E0E9FFEFCE0EDF1ED6015E968C933E
:103BF000E1E7F0E0CE0EDF1ED6018C91EFE8FFEF9B
:103C0000CE0EDF1ED6015F968C93F601EF5BFF4F61
:103C100080819181806491838083C6010E94521BC0
:103C20000F900F90CF91DF911F910F91FF90EF9028
:103C3000DF90CF900895CF93DF93EC018E89882396
:103C400031F0CE010E94C31CCE010E94301880E0EA
:103C5000DF91CF910895AF92BF92CF92DF92EF9212
:103C6000FF920F931F93DF93CF93CDB7DEB7C65963
:103C7000D0400FB6F894DEBF0FBECDBF5C018B0104
:103C8000FB018281882321F48481882309F479C08F
:103C900063E3E62EF12CEC0EFD1EC70160E272E03C
:103CA0000E9478505AEAC52ED12CC00ED11EC114E4
:103CB000D10461F000531F4FF8018081005D104076
:103CC000823009F496C0833009F497C0CE01C396C0
:103CD00063E372E00E946D5043E3E42EF12CEC0E9E
:103CE000FD1EC70169E372E00E946D50C114D1044A
:103CF000D9F00F521F4FF8018081015D10408E3EB8
:103D000009F47FC0813F09F480C0813009F481C08B
:103D1000823009F482C0833009F483C0843009F40E
:103D200084C0853009F485C0CE01C39663E372E098
:103D30000E946D5033E3E32EF12CEC0EFD1EC70103
:103D40006AE472E00E946D50CD2881F00E521F4F40
:103D5000F8016081603109F470C0623109F471C00A
:103D6000643109F472C0663109F473C0CE01C396A0
:103D700063E372E00E946D50C501BE016D5C7F4F30
:103D800035C0FB018381882309F485C07E01089436
:103D9000E11CF11CC7016EE572E00E947850FFEF54
:103DA00006351F07C9F001541F4FF80160816E3EB0
:103DB00009F453C0613F09F454C0613009F455C09F
:103DC000623009F456C0633009F457C0643009F416
:103DD00058C0653009F45AC0CE01019663E372E021
:103DE0000E946D50C501BE016F5F7F4F0E947D47ED
:103DF00052C0C7016CE672E06DCFC70164E772E0A4
:103E000069CFC7016EE772E093CFC70167E872E040
:103E10008FCFC70164E972E08BCFC7016DE972E013
:103E200087CFC70163EA72E083CFC70167EA72E018
:103E30007FCFC7016CEA72E07BCFC70161EB72E014
:103E400099CFC70166EC72E095CFC7016CED72E0C7
:103E500091CFC70165EF72E08DCFC7016EE772E0C9
:103E6000BFCFC70167E872E0BBCFC70164E972E06A
:103E7000B7CFC7016DE972E0B3CFC70163EA72E063
:103E8000AFCFCE01019667EA72E0AACFCE010196CC
:103E90006CEA72E0A5CFC501CA56DF4F0FB6F894A1
:103EA000DEBF0FBECDBFCF91DF911F910F91FF906D
:103EB000EF90DF90CF90BF90AF900895EF92FF9278
:103EC0000F931F93CF93DF937C0100E010E1C0E0DC
:103ED000D0E0E016F10630F481E99DE060E072E0A8
:103EE0000E94BA4674E0169507957A95E1F72196F7
:103EF000C330D10571F781E99DE0B70140E150E0A1
:103F00000E949746DF91CF911F910F91FF90EF9004
:103F100008952F923F924F925F926F927F928F926D
:103F20009F92AF92BF92CF92DF92EF92FF920F9348
:103F30001F93DF93CF93CDB7DEB764970FB6F89496
:103F4000DEBF0FBECDBF7C01862E4B8B2C8BDC01E0
:103F50001796CD90DC90189719968C91882339F09C
:103F60008DE399E00E94333319ED912EE1C1D60122
:103F7000ED91FC910190F081E02DC60160E0199572
:103F80005C01009729F489E299E00E94333377C0FD
:103F9000FC01608071806114710439F488E199E05A
:103FA0000E943333B7ED9B2EC3C1AAE02A2E312CD9
:103FB0002E0C3F1CDC0111963C922E92EC8914963B
:103FC000EC93D70117968D919C91189760E040E093
:103FD00022E130E02E010894411C511C82010E9414
:103FE0000033982EF50171826082882309F074C134
:103FF000D601ED91FC910280F381E02DC601682D80
:1040000040E02B891995282FF7018187882319F41F
:10401000F4ED9F2E8DC1D20117968C91F701838705
:104020008781908560E040E00E944431982ED6015F
:10403000ED91FC918823A9F0D50114961C9204807F
:10404000F581E02DC601D70119966C911995F701FC
:1040500011868CE099E00E943333892D0E9457121B
:1040600067C1D50114961C920190F081E02DC60124
:10407000D70119966C911995FC01009719F4E6ED9A
:104080009E2E56C1BC89B483F701878190856185D6
:1040900041E091010E948B2B982E882309F01FC1CB
:1040A000D2011896CD90DC9019971A960D911C911B
:1040B0001B97B2E1CB16BAE0DB0609F0A0C00130D5
:1040C000110509F09CC08FEE98E00E943333D701B0
:1040D000A45DBE4F80E090E0FC01E458FB4FE4910A
:1040E000ED93019680339105B9F7EAE2F1E0EE0E27
:1040F000FF1E82E5D7018D937D0111E01C93EFE354
:10410000F0E0EE0EFF1E82EAD7018D937D0122E0E2
:104110002C93E3E3F0E0EE0EFF1E90E4D7019D93B5
:104120007D011C92E3E0F0E0EE0EFF1E81E4D7017A
:104130008D937D011C92EDE5FEEFEE0EFF1ED70183
:104140001D961C931D9780E11E968C931E9784E00C
:104150001F968C931F9750962C93509751969C9333
:10416000519752961C92529753962C93539754966C
:104170009C93549755961C92559717968D919C91A8
:10418000189719966C9143E091010E948B2B982E01
:10419000882309F0A4C068EC70E080E090E00E9401
:1041A000DD48F701878190856185428521E00E9485
:1041B0001331982E882309F097C0D701DE961C9200
:1041C000EFE3F0E0EE0EFF1ED7011D921C92E4E03B
:1041D000F0E0EE0EFF1ED7011C92EDEBFFEFEE0EAE
:1041E000FF1E8DED98E00E94333368EC70E080E0B4
:1041F00090E00E94DD48D70156961C9399C0BCE41C
:10420000CB16B5E0DB0609F072C0E2E008361E0707
:1042100049F0F4E00F321F0729F023E0053D1207B3
:1042200009F065C082E0D7011D968C931D9720E4AC
:104230001E962C931E9794E01F969C931F9781E0E7
:1042400050968C93509751962C93519752969C93DD
:10425000529717968D919C91189719966C9143E0FF
:1042600091010E948B2B982E8823C9F568EC70E091
:1042700080E090E00E94DD48F701878190856185AC
:10428000428521E00E941331982E882369F5F2E0DF
:1042900008361F0721F00F52144089F403C08AEB3F
:1042A00098E002C088E998E00E943333C7014EE5E8
:1042B00050E0E40EF51EB7010E946E1739C08AE780
:1042C00098E00E943333C701AEE5B0E0EA0EFB1E72
:1042D000B7010E94CF162CC08BE698E002C08CE597
:1042E00098E00E94333311C081E598E0FACF8EE266
:1042F00098E00E943333C6010E945E1F87E298E077
:104300000E943333C8010E945E1F87E098E00E943C
:10431000333381E99DE0692D4AE050E00E94A846D0
:10432000D701ED91FC910280F381E02DC701199531
:10433000892D64960FB6F894DEBF0FBECDBFCF9126
:10434000DF911F910F91FF90EF90DF90CF90BF9082
:10435000AF909F908F907F906F905F904F903F9025
:104360002F9008952C9862606EBD0DB407FEFDCFAE
:104370004EBD0DB407FEFDCF2C9A08952C986EBD4E
:104380000DB407FEFDCF1EBC0DB407FEFDCF2C9A69
:104390008EB50895EF92FF920F931F93CF93DF9303
:1043A0008C0168E740E20E94B221C80168E740E062
:1043B0000E94B221EE24FF24CFEFDFEF07C0C80137
:1043C00068E60E94BE21219780FD09C00894E11C87
:1043D000F11C2097A1F7EF2811F48FEF57C0C80107
:1043E00068ED41EC0E94B221C80160ED40E60E94F8
:1043F000B221C80168EE44E00E94B221C80168EE13
:104400000E94BE2182FFFACFC80168EF0E94BE2140
:10441000807C803489F0813418F4882329F12BC002
:10442000803819F0803C39F51BC0C80168ED0E9446
:10443000BE2181FD07C00DC0C80168ED0E94BE21EC
:1044400081FD07C0C80168ED4BEC0E94B22183E0FA
:1044500008C0C80168ED49EC0E94B22182E001C0A9
:1044600081E080930D0707C0C80168ED41ED0E940F
:10447000B22110920D07C80168EC40E20E94B221FF
:10448000C80160E841E00E94B22180E0DF91CF9155
:104490001F910F91FF90EF9008950F931F930BEDD5
:1044A00014E0C8010E94DA2B83E595E0B8010E9470
:1044B0001C0F8AEF96E00E948F261F910F9108959E
:1044C0000F931F93CF93DF93EC01162F042F89EFE7
:1044D0009AE00E94F13D892B21F08FE093E00E9449
:1044E000EF2989EF9AE0BE010E94E73D89EF9AE04B
:1044F000612F0E94693E89EF9AE0602F0E94693E19
:1045000089EF9AE00E94993E1092F906DF91CF91CF
:104510001F910F9108950F931F93482F853740F4F3
:1045200084E790E0841B9109082F000F21E008C068
:104530008A3810F400E003C0082F000F025120E079
:10454000653740F484E790E0861B9109182F110F1E
:1045500081E008C06A3810F410E003C0162F110F74
:10456000125180E0002369F4112311F582E090E0FC
:1045700060E040E00E94602289E293E060E070E049
:104580002CC01017A8F4222349F082E090E061E0EB
:10459000402F0E94602283E393E008C082E090E015
:1045A00062E0402F0E9460228CE393E0602F14C0F1
:1045B000882349F082E090E063E0412F0E9460226E
:1045C00087E493E008C082E090E064E0412F0E941D
:1045D000602282E593E0612F70E00E94C82A1F915B
:1045E0000F910895AF92BF92CF92DF92EF92FF9218
:1045F0000F931F93DF93CF93CDB7DEB7E8970FB636
:10460000F894DEBF0FBECDBF80915505882329F4F5
:1046100080915705882309F4BAC181E08093D904B9
:1046200088E78093D7048093D80483E595E06FE012
:1046300070E00E94CC0F8A3840F483E595E06FE08B
:1046400070E00E94CC0F853740F483E595E06FE081
:1046500070E00E94CC0F8093D70483E595E060E181
:1046600070E00E94CC0F8A3840F483E595E060E169
:1046700070E00E94CC0F853740F483E595E060E15F
:1046800070E00E94CC0F8093D80483E595E061E14F
:1046900070E00E94CC0F8A3840F483E595E061E138
:1046A00070E00E94CC0F853720F483E79AE00E94E7
:1046B000333383E595E062E170E00E94CC0F8A38E5
:1046C00040F483E595E062E170E00E94CC0F85370D
:1046D00020F485E69AE00E94333383E595E06BE1B0
:1046E00070E00E94BF0F882321F08EE59AE00E94BF
:1046F000333383E595E06CE170E00E94BF0F8823BF
:1047000021F087E59AE00E94333380915905882390
:1047100009F433C186E49AE00E94333383E595E0DF
:1047200061E07DE00E94A50F882349F080E49AE0D3
:104730000E94333383E595E00E9409181EC183E58A
:1047400095E060E17CE00E94A50F882341F084E3BE
:104750009AE00E9433338EE593E00E94EF2983E5CF
:1047600095E060E27CE00E94A50F882341F08AE298
:104770009AE00E94333387E693E00E94EF2983E5B5
:1047800095E060E47CE00E94A50F882341F081E27F
:104790009AE00E9433338EE693E00E94EF2983E58E
:1047A00095E060E87CE00E94A50F882341F087E156
:1047B0009AE00E94333384E793E00E94EF2983E577
:1047C00095E060E17BE00E94A50F882391F081E1F4
:1047D0009AE00E9433338BE793E00E94EF2983E550
:1047E00095E00E94401283E595E068E070E00E9449
:1047F0002E1283E595E060E27BE00E94A50F8823FE
:1048000091F088E09AE00E9433338EE793E00E94B3
:10481000EF2983E595E00E94401283E595E061E091
:1048200070E00E942E1283E595E060E47BE00E9438
:10483000A50F882391F080E09AE00E94333384E84A
:1048400093E00E94EF2983E595E00E94401283E502
:1048500095E062E070E00E942E1283E595E060E84A
:104860007BE00E94A50F882391F088EF99E00E94D9
:10487000333389E893E00E94EF2983E595E00E94B5
:10488000401283E595E064E070E00E942E1283E51B
:1048900095E064E07CE00E94A50F882341F082EF60
:1048A00099E00E9433338EE893E00E94EF2983E57C
:1048B00095E062E07BE00E94A50F882341F08CEE3A
:1048C00099E00E94333381E993E00E94EF2983E568
:1048D00095E068E07CE00E94A50F882341F086EE19
:1048E00099E00E94333384E993E00E94EF2983E545
:1048F00095E064E07BE00E94A50F882341F080EE04
:1049000099E00E94333387E993E00E94EF2983E521
:1049100095E061E07BE00E94A50F882341F083EDE4
:1049200099E00E9433338AE993E00E94EF2983E5FE
:1049300095E068E07BE00E94A50F8823F1F08AEC07
:1049400099E00E9433338091DA04882359F081EA98
:1049500093E00E94EF291092DA0486E197E00E942A
:10496000CB290BC088EB93E00E94EF2981E0809374
:10497000DA0486E197E00E94BB298091F90688233A
:1049800009F46FC18091D8046091D70468C1809107
:104990005605882309F457C183E595E06FE070E080
:1049A0000E94BF0F882389F084EC99E00E94333382
:1049B00083E595E06FE070E00E94BF0F682F81E90A
:1049C0009DE04AE050E00E94A84680915905882366
:1049D00009F4AAC08EEA99E00E94333383E595E09A
:1049E00061E07CE00E94A50F882349F088EA99E005
:1049F0000E94333383E595E00E94091895C083E552
:104A000095E061E07AE00E94A50F882331F08EE9FD
:104A100099E00E9433331092F80683E595E068E050
:104A20007AE00E94A50F882339F085E999E00E9479
:104A3000333381E08093F80683E595E060E17BE025
:104A40000E94A50F882361F089E899E00E94333322
:104A500083E595E040E050E06FEF70E00E94581170
:104A600083E595E060E27BE00E94A50F882361F07A
:104A70008FE799E00E94333383E595E040E05FEFF4
:104A800060E070E00E94581183E595E060E87BE00B
:104A90000E94A50F882361F085E799E00E943333D7
:104AA00083E595E04FEF50E060E070E00E94581120
:104AB00083E595E060E47BE00E94A50F882361F028
:104AC0008CE699E00E94333383E595E044E05BEEA9
:104AD0006FEF70E00E94581183E595E068E07CE09C
:104AE0000E94A50F882301F183E595E040E050E0A6
:104AF00060E070E00E94581184E699E00E94333330
:104B000080E699E00E9433338E010F5F1F4FC8018A
:104B100063E575E00E942B1E81E99DE0B8010E94CB
:104B2000D046C8010E944C488091F806882309F4B9
:104B300098C038E0A32EB12CAC0EBD1EC50160EDAF
:104B400073E00E947D472FE0C22ED12CCC0EDD1EDB
:104B5000C60160ED73E00E947D4783E595E06EE25B
:104B600070E00E94D90FAB01BC0196E1E92EF12C57
:104B7000EC0EFD1EC7012AE00E94B0478A8D9B8D76
:104B80000497D0F08E01035E1F4FC801B70140E0CB
:104B900050E022E030E00E94E247C601B8010E94E6
:104BA0003548C8010E944C488E010C5D1F4FC8015A
:104BB000B70142E050E019C08E01055D1F4FC801EA
:104BC000B70140E050E021E030E00E94E247C6013A
:104BD000B8010E943548C8010E944C488E010E5C05
:104BE0001F4FC801B70141E050E00E942948C501AC
:104BF000B8010E943548C8010E944C4880E599E000
:104C00000E9433338FE0E82EF12CEC0EFD1E81E97B
:104C10009DE0B7010E94D0468EE499E00E943333B4
:104C20008E01085F1F4F81E99DE0B8010E94D046C8
:104C3000CE0146960E944C48C7010E944C48C801CC
:104C40000E944C480EC08091F906882351F0809153
:104C5000D904882331F01092D90488E768E70E94CC
:104C60008B22E8960FB6F894DEBF0FBECDBFCF9172
:104C7000DF911F910F91FF90EF90DF90CF90BF9049
:104C8000AF9008958BED94E00E94FC310E94F222D7
:104C90008AEF96E00E941228089581E99DE040E89D
:104CA00055E260E070E00E940B4389EF9AE00E94B9
:104CB000A93E8DE061E00E9499491092F90686E1D3
:104CC00097E044EF51E060E070E00E943A2986E10D
:104CD00097E061E876E20E94B7298AEF96E00E94A9
:104CE000C2288BED94E00E94CA218F3F29F481EA0B
:104CF0009AE00E943333FFCF81E89AE00E94333379
:104D000008951F938DE00E94664A11E0682F612785
:104D10008DE00E94334A1093F9061F910895FC011B
:104D200081E494E09183808313821282148215823D
:104D300088EE93E09783868380ED97E09187808764
:104D4000128613861486158616861786108A118A8F
:104D5000128AF0931507E09314070895FC018481EB
:104D60006817B0F4862F90E0880F991F0280F381B6
:104D7000E02DE80FF91FA081B181109749F0ED9166
:104D8000FC9111970190F081E02DCD01BA011995A8
:104D900008950F931F93CF93DF938C01C0E0D0E071
:104DA00017C0CE01880F991FD8011296ED91FC9182
:104DB0001397E80FF91FA081B181109741F0ED9191
:104DC000FC9111970480F581E02DCD011995219674
:104DD000F801848190E0C817D9071CF3DF91CF91C7
:104DE0001F910F910895DF92EF92FF920F931F93FF
:104DF000CF93DF93EC01DA880E94A948E0E0288590
:104E0000398540E050E0EA84FB840C851D852E0D39
:104E10003F1D401F511F621773078407950708F451
:104E2000E1E0EA8BDD2029F0EE2319F4CE010E94A7
:104E3000C926DF91CF911F910F91FF90EF90DF90E6
:104E40000895EF92FF920F931F937B010CE714E0FC
:104E5000C8010E945E0B81E99DE0B7010E94BD463A
:104E6000C8010E94690B1F910F91FF90EF90089568
:104E7000DF92EF92FF920F931F938B01D42E8CE75A
:104E800094E060912B040E94D50A882321F480913C
:104E90002B048F3F49F48CE794E061E048E553E24E
:104EA0000E94410C80932B04E0901207F0901307AE
:104EB000E114F10459F08CE794E060912B04A8010F
:104EC0002D2D30E00EE017E00E94860C1F910F910F
:104ED000FF90EF90DF900895AF92BF92CF92DF9254
:104EE000EF92FF920F931F93DF93CF930F920F9246
:104EF000CDB7DEB76C017B015A01122F81E08983A7
:104F0000F60185810E9465499595879595958795C8
:104F10008A8380912B04181769F48CE794E0612F41
:104F2000AE014F5F5F4F22E030E0870175010E94C4
:104F3000860C05C0C60161ED73E00E942127F601D1
:104F400082859385A485B58586879787A08BB18B4D
:104F50000F900F90CF91DF911F910F91FF90EF90E5
:104F6000DF90CF90BF90AF9008957F928F929F92E5
:104F7000AF92BF92CF92DF92EF92FF920F931F9367
:104F8000CF93DF936C01590148017E2C41155105E7
:104F9000D9F1FB0180818130B9F5EB0100E010E02F
:104FA0007A010894E108F1080DC0D601ED91FC9159
:104FB00048810190F081E02DC601602F50E01995E5
:104FC0000F5F1F4F21960E151F0578F30E94A94809
:104FD000F60162877387848795872681378140E051
:104FE00050E0E684F784008911892E0D3F1D401F93
:104FF000511F261737074807590730F4C601B50176
:10500000A401272D0E946C27DF91CF911F910F9152
:10501000FF90EF90DF90CF90BF90AF909F908F90D8
:105020007F9008952F923F924F925F926F927F925E
:105030008F929F92AF92BF92CF92DF92EF92FF92A8
:105040000F931F93DF93CF93CDB7DEB7CB54D040F0
:105050000FB6F894DEBF0FBECDBF2C969FAF8EAFBC
:105060002C978CE794E060912B040E94D50A88234A
:1050700021F480912B048F3F49F48CE794E061E0A8
:1050800048E553E20E94410C80932B048FEF898303
:105090007AE0A72EB12CAC0EBD1E8824992464E0C2
:1050A000262E312C2C0E3D1E50E4452E512C3E0157
:1050B0000894611C711C6201C818D9088CE794E03F
:1050C000B301AE014E5F5F4F9E012A5F3F4F8101EA
:1050D00075010E9491069C0101978E5F9F4F20F4FD
:1050E000A20EB31E820E931E8A819B81892B19F713
:1050F0008114910439F10C811D81809112079091E6
:1051000013078017910781F010931307009312077C
:105110008E8180930E078F8180930F0788858093FF
:1051200010078985809311072C968EAD9FAD2C9723
:10513000BE01665F7F4FA4019E012A5F3F4FE98059
:105140000E94B5272C968EAD9FAD2C970E94F3261A
:10515000C55BDF4F0FB6F894DEBF0FBECDBFCF915A
:10516000DF911F910F91FF90EF90DF90CF90BF9054
:10517000AF909F908F907F906F905F904F903F90F7
:105180002F9008950F931F93CF93DF93EC018CE73B
:1051900094E00E94110F882331F0CE016AED73E094
:1051A0000E9421272FC08CE794E00E94510A609151
:1051B0002004709121048CE794E042E020912204C5
:1051C0000E94330C882331F0CE0163EE73E00E941D
:1051D0002127FFCF8CE794E063E274E040E050E0E9
:1051E00020E030E007E214E00E94270E882351F00F
:1051F000CE016CEE73E00E9421278CE794E00E94C0
:10520000510BFFCFDF91CF911F910F9108951F9206
:105210000F920FB60F920BB60F9211242F933F935C
:105220004F935F936F937F938F939F93AF93BF93AE
:10523000EF93FF938091190790911A07909395002F
:1052400080939400E0911607F09117071995FF914C
:10525000EF91BF91AF919F918F917F916F915F91EE
:105260004F913F912F910F900BBE0F900FBE0F905B
:105270001F901895CF93DF93EC01CB01BA0120E882
:105280003EE340E050E00E94EA4D9B01AC0120303B
:1052900080E0380781E0480780E058077CF481E02F
:1052A0008A8380E090E0A1E0B0E0821B930BA40B26
:1052B000B50B8B839C83AD83BE8356C0203080E0CA
:1052C000380788E0480780E058074CF482E08A837A
:1052D000CA01B90128E030E040E050E032C020309F
:1052E00080E0380780E4480780E058074CF483E00A
:1052F0008A83CA01B90120E430E040E050E021C0D7
:10530000203080E0380780E0480781E058074CF4FF
:1053100084E08A83CA01B90120E031E040E050E036
:1053200010C0203080E0380780E0480784E058074C
:10533000D4F485E08A83CA01B90120E034E040E07A
:1053400050E00E943E4E50954095309521953F4F3C
:105350004F4F5F4F205030404F4F5F4F2B833C8368
:105360004D835E8301C01A82DF91CF910895FC01C5
:10537000718360830895FC0181E080937100109235
:105380009000838194819093950080939400828112
:10539000809391000895109291000895CF93DF9328
:1053A000FC01E05CFF4F11821082E054F040DB0111
:1053B000EF0180E090E002C0299301962C91222316
:1053C00021F011968F339105B8F3E05CFF4F918384
:1053D0008083E054F040CF01DF91CF910895DF93B7
:1053E000CF93CDB7DEB7C458D0400FB6F894DEBF28
:1053F0000FBECDBF20E030E0BE016F5F7F4F06C023
:10540000FB01E20FF31F40832F5F3F4FFC01E20FD0
:10541000F31F4081442319F02F33310589F7FE0132
:10542000EF5BFF4F31832083DE01AD5BBF4FFE0199
:10543000319682E401900D928150E1F78AEF96E077
:10544000BE016D5B7F4FFE01ED57FF4F40810E9413
:105450003827CC57DF4F0FB6F894DEBF0FBECDBF55
:10546000CF91DF9108952F923F924F925F926F926A
:105470007F928F929F92AF92BF92CF92DF92EF92E4
:10548000FF920F931F93DF93CF9300D00F920F9251
:10549000CDB7DEB75C01CC24DD2494E0892E912CBD
:1054A0002B01662477241E010894211C311CB401B1
:1054B000882777FD8095982F0E94964B9B01AC0121
:1054C00060E070E080E291E40E94AA4C7B018C01D4
:1054D000C301B2010E94944BA80197010E94FB4AAC
:1054E0000E94634BDC01CB016AE070E00E94094E30
:1054F000009741F0F101EC0DFD1D805D8083089463
:10550000C11CD11C0894810891088FEF88168FEF79
:10551000980669F6C114D10429F480E3898381E0F7
:10552000C82ED12C90E09E012F5F3F4F08C0F5019F
:10553000EA0FFB1FA20FB31F8C9180839F5FA92FDF
:10554000B0E0AC15BD0598F3E0E4F0E0AE0EBF1E90
:10555000F501D182C08280EC9FEFA80EB91EC50173
:105560000F900F900F900F900F90CF91DF911F91A0
:105570000F91FF90EF90DF90CF90BF90AF909F90F2
:105580008F907F906F905F904F903F902F900895F5
:10559000CF92DF92EF92FF920F931F93DF93CF93FF
:1055A000CDB7DEB7C850D1400FB6F894DEBF0FBEFE
:1055B000CDBF9C018B017E010894E11CF11CC70149
:1055C000B9010E94CE29FE01EF5BFF4FC080D18060
:1055D000CE018D5B9F4FB8010E94332AFE01ED572B
:1055E000FF4F408151814C0D5D1D20E030E0BE0138
:1055F0006B577F4F0AC0FB01E20FF31FD701A20FC9
:10560000B31F8C9180832F5F3F4F2C153D0598F37E
:10561000F6019E012D5B3F4F6C0D7D1D07C0D9012A
:105620008D919D01DB018D93BD013196E417F50746
:10563000B0F3FE01EB53FF4F51834083DE01A953CA
:10564000BF4FFE01EB57FF4F82E401900D92815056
:10565000E1F78AEF96E0BE0169537F4FFE01E95FF3
:10566000FE4F40810E943827C85FDE4F0FB6F89486
:10567000DEBF0FBECDBFCF91DF911F910F91FF9085
:10568000EF90DF90CF900895FC0187E494E0918340
:105690008083158281E0818712869F012E5F3F4FB4
:1056A000108637832683128288E083838CE3848389
:1056B000DF0181E091E01D961C921D971E969C9340
:1056C0001E971F961C921F971C963C932E931B9718
:1056D0008F5F1596803179F715820895AC016623A6
:1056E00021F49C012A5F3F4F14C0FC0121E0858515
:1056F000861739F02F5F35962031C9F720E030E06A
:1057000008C085E0289F900111242A5F3F4F240F95
:10571000351FC90108950F931F93CF93DF93162F61
:10572000042FE9012115310511F488ED0CC00E9408
:105730006E2BFC01009711F486ED05C01283D18316
:10574000C083038380E0DF91CF911F910F91089573
:105750001F93142F0E946E2BDC01009781F0ED91B6
:10576000FC911197309769F013969C9120E005C049
:105770008081811731F033962F5F2917C8F3E0E05D
:10578000F0E0CF011F910895249A2C9A219A229A31
:105790002398209A20E52CBD21E02DBD2DB52EB5F6
:1057A000E1E0F1E020812F7B208368E848E10E945E
:1057B000B22108950F931F938C010E94C42BC8013E
:1057C0000E94442B81E180931D070A581F4FF80166
:1057D000119210821F910F910895AF92BF92CF92B4
:1057E000DF92EF92FF920F931F93CF93DF93EC0121
:1057F000D62EC42E790158010E946E2B8C01009781
:1058000011F486ED4BC0DC018D919C91892B11F434
:1058100087ED44C0CE016D2D4C2D0E94A82BFC01BC
:10582000D7018D939C93009711F48BED37C02281A3
:1058300026952695822F90E040971CF080E090E816
:105840000BC081E090E0A0E0B0E004C0880F991F99
:10585000AA1FBB1F2A95D2F7F50191838083FC2EE6
:10586000ED2ECE0160EE4D2D0E94B221CE0168EDED
:105870000E94BE21982FD80114968C91882331F074
:10588000C958DF4F48814260492B02C0492F497FE8
:105890008F2D9E2D68ED0E94B22180E0DF91CF9187
:1058A0001F910F91FF90EF90DF90CF90BF90AF903E
:1058B0000895DF93CF930F92CDB7DEB7DC016983F4
:1058C000362F67FD6AC0283008F067C0442319F4FA
:1058D000FD0191E006C015968C9115978730C1F7B0
:1058E0005CC08585882329F09F5F35969031C9F784
:1058F00054C0332379F5292F30E0442399F0F9017E
:10590000EE0FFF1FEE0FFF1FE20FF31FEA0FFB1F4B
:1059100081E4808715968C9115978F5F15968C93EF
:1059200015970BC0F901EE0FFF1FEE0FFF1FE20FDF
:10593000F31FEA0FFB1F81E08087892F90E0FC01B5
:10594000EE0FFF1FEE0FFF1FE80FF91FEA0FFB1FFF
:10595000208524C039813770330F330F330F442330
:1059600059F0306415968C9115978F5F15968C932E
:1059700015978770382B03C02770387B322B232F65
:10598000892F90E0FC01EE0FFF1FEE0FFF1FE80FC5
:10599000F91FEA0FFB1F208701C020E0822F0F9024
:1059A000CF91DF9108951F93CF93DF93EC0168ECC3
:1059B0000E94BE2185FD02C010E038C0CE0168EF14
:1059C0000E94BE21807C803489F0813418F48823C1
:1059D00029F12BC0803819F0803C39F51BC0CE016D
:1059E00068ED0E94BE2181FD07C00DC0CE0168EDAB
:1059F0000E94BE2181FD07C0CE0168ED4BEC0E94E4
:105A0000B22183E008C0CE0168ED49EC0E94B221CA
:105A100082E001C081E080930D0707C0CE0168EDF0
:105A200041ED0E94B22110920D0710E2CE0168EC08
:105A3000412F0E94B221812FDF91CF911F910895B4
:105A4000CF92DF92EF92FF920F931F93CF93DF934A
:105A50008C01662309F44EC0C62EDD24E601CC0F6E
:105A6000DD1FCC0FDD1FCC0DDD1D2896C80FD91F03
:105A7000888186FF26C0FF24F394E5E0EE2E98810E
:105A80008F2D81508F3010F0FF24F39497700DC04C
:105A9000FE9CF0011124E00FF11F8085869586950C
:105AA00086958770891729F0F3948FE08F1580F71A
:105AB0001AC0C8016F2D0E94202DE1CF9150F8012E
:105AC0009583F601EE0FFF1FEE0FFF1FEC0DFD1D7E
:105AD000E00FF11F108681E0818712860E5F1F4F55
